:020000040800F2
:1000000000000120B1280008951B00089B1B000878
:10001000A11B0008A71B0008AD1B00080000000082
:10002000000000000000000000000000F185000852
:10003000B31B000800000000218600088986000824
:1000400001290008012900080129000801290008E8
:1000500001290008012900080129000801290008D8
:1000600001290008012900080129000801290008C8
:1000700001290008012900080129000801290008B8
:1000800001290008012900080129000801290008A8
:10009000C11B0008D51B0008012900080129000820
:1000A0000129000801290008012900080129000888
:1000B000E91B000800000000000000000129000802
:1000C0000129000801290008012900080129000868
:1000D00001290008FD1B0008111C0008251C000850
:1000E000391C000801290008000000000000000081
:1000F0000000000000000000000000000000000000
:10010000000000000129000800000000012900088B
:10011000000000000000000001290008012900087B
:100120000129000801290008012900080129000807
:10013000012900080000000000000000000000008D
:100140000129000801290008012900080000000019
:100150000129000801290008591C0008012900088C
:1001600001290008012900080129000800000000F9
:10017000012900080129000800000000000000001B
:0C018000012900080129000801290008DD
:1001900010B5054C237833B9044B13B10448AFF3C1
:1001A00000800123237010BD140200200000000015
:1001B0004CB2000808B5034B1BB103490348AFF329
:1001C000008008BD00000000180200204CB20008AA
:1001D000034613F8012B002AFBD1181A0138704787
:1001E00001F0FF01102A2BDB10F0070F08D010F8E8
:1001F000013B013A8B422DD010F0070F42B3F6D1EC
:10020000F0B441EA012141EA014122F007047FF004
:1002100000070023F0E80256083C85EA010586EA5B
:10022000010685FA47F5A3FA87F586FA47F6A5FA97
:1002300087F68EB9EED1F0BC01F0FF0102F00702A3
:1002400032B110F8013B013A83EA010313B1F8D14E
:100250000020704701387047002D06BF354603382F
:10026000073815F0010F07D1013015F4807F02BF68
:10027000013015F4C03F0130F0BC0138704700BFB9
:1002800081F0004102E000BF83F0004330B54FEA47
:1002900041044FEA430594EA050F08BF90EA020FB4
:1002A0001FBF54EA000C55EA020C7FEA645C7FEA47
:1002B000655C00F0E2804FEA5454D4EB5555B8BF6A
:1002C0006D420CDD2C4480EA020281EA030382EADB
:1002D000000083EA010180EA020281EA0303362D6D
:1002E00088BF30BD11F0004F4FEA01314FF4801C40
:1002F0004CEA113102D0404261EB410113F0004F52
:100300004FEA03334CEA133302D0524263EB430308
:1003100094EA050F00F0A780A4F10104D5F1200EA6
:100320000DDB02FA0EFC22FA05F2801841F1000101
:1003300003FA0EF2801843FA05F359410EE0A5F1D5
:1003400020050EF1200E012A03FA0EFC28BF4CF006
:10035000020C43FA05F3C01851EBE37101F00045BC
:1003600007D54FF0000EDCF1000C7EEB00006EEBC9
:100370000101B1F5801F1BD3B1F5001F0CD3490853
:100380005FEA30004FEA3C0C04F101044FEA4452AA
:1003900012F5800F80F09A80BCF1004F08BF5FEA31
:1003A000500C50F1000041EB045141EA050130BD11
:1003B0005FEA4C0C404141EB0101013C28BFB1F523
:1003C000801FE9D291F0000F04BF01460020B1FA6E
:1003D00081F308BF2033A3F10B03B3F120020CDA41
:1003E0000C3208DD02F1140CC2F10C0201FA0CF01F
:1003F00021FA02F10CE002F11402D8BFC2F1200C84
:1004000001FA02F120FA0CFCDCBF41EA0C01904039
:10041000E41AA2BF01EB0451294330BD6FEA040482
:100420001F3C1CDA0C340EDC04F11404C4F120026D
:1004300020FA04F001FA02F340EA030021FA04F37F
:1004400045EA030130BDC4F10C04C4F1200220FAD6
:1004500002F001FA04F340EA0300294630BD21FA14
:1004600004F0294630BD94F0000F83F4801306BFDA
:1004700081F480110134013D4EE77FEA645C18BFCE
:100480007FEA655C29D094EA050F08BF90EA020F65
:1004900005D054EA000C04BF1946104630BD91EA5D
:1004A000030F1EBF0021002030BD5FEA545C05D160
:1004B0004000494128BF41F0004130BD14F580049F
:1004C0003CBF01F5801130BD01F0004545F0FE4113
:1004D00041F470014FF0000030BD7FEA645C1ABF48
:1004E000194610467FEA655C1CBF0B46024650EA7F
:1004F000013406BF52EA033591EA030F41F40021AB
:1005000030BD00BF90F0000F04BF0021704730B530
:100510004FF4806404F132044FF000054FF0000105
:1005200050E700BF90F0000F04BF0021704730B5C6
:100530004FF4806404F1320410F0004548BF40429B
:100540004FF000013EE700BF42004FEAE2014FEAF0
:1005500031014FEA02701FBF12F07F4393F07F4FCB
:1005600081F06051704732F07F4208BF704793F0CE
:100570007F4F04BF41F40021704730B54FF46074E1
:1005800001F0004521F000411CE700BF50EA0102E4
:1005900008BF704730B54FF000050AE050EA01028D
:1005A00008BF704730B511F0004502D5404261EBFD
:1005B00041014FF4806404F132045FEA915C3FF43E
:1005C000D8AE4FF003025FEADC0C18BF03325FEADB
:1005D000DC0C18BF033202EBDC02C2F1200300FA8C
:1005E00003FC20FA02F001FA03FE40EA0E0021FAB1
:1005F00002F11444BDE600BF70B54FF0FF0C4CF49F
:10060000E06C1CEA11541DBF1CEA135594EA0C0F50
:1006100095EA0C0F00F0DEF82C4481EA030621EA8B
:100620004C5123EA4C5350EA013518BF52EA0335C6
:1006300041F4801143F4801338D0A0FB02CE4FF078
:100640000005E1FB02E506F00042E0FB03E54FF0A8
:100650000006E1FB03569CF0000F18BF4EF0010EA0
:10066000A4F1FF04B6F5007F64F5407404D25FEA9C
:100670004E0E6D4146EB060642EAC62141EA55514F
:100680004FEAC52040EA5E504FEACE2EB4F1FD0C91
:1006900088BFBCF5E06F1ED8BEF1004F08BF5FEA0F
:1006A000500E50F1000041EB045170BD06F00046C1
:1006B00046EA010140EA020081EA0301B4EB5C046E
:1006C000C2BFD4EB0C0541EA045170BD41F4801166
:1006D0004FF0000E013C00F3AB8014F1360FDEBF8B
:1006E000002001F0004170BDC4F10004203C35DA67
:1006F0000C341BDC04F11404C4F1200500FA05F3EA
:1007000020FA04F001FA05F240EA020001F000428A
:1007100021F0004110EBD37021FA04F642EB060100
:100720005EEA430E08BF20EAD37070BDC4F10C042A
:10073000C4F1200500FA04F320FA05F001FA04F2EE
:1007400040EA020001F0004110EBD37041F10001DA
:100750005EEA430E08BF20EAD37070BDC4F12005E5
:1007600000FA05F24EEA020E20FA04F301FA05F24D
:1007700043EA020321FA04F001F0004121FA04F2F5
:1007800020EA020000EBD3705EEA430E08BF20EAC5
:10079000D37070BD94F0000F0FD101F000464000FF
:1007A00041EB010111F4801F08BF013CF7D041EA81
:1007B000060195F0000F18BF704703F00046520085
:1007C00043EB030313F4801F08BF013DF7D043EA56
:1007D0000603704794EA0C0F0CEA135518BF95EA0C
:1007E0000C0F0CD050EA410618BF52EA4306D1D193
:1007F00081EA030101F000414FF0000070BD50EAB2
:10080000410606BF1046194652EA430619D094EA3B
:100810000C0F02D150EA013613D195EA0C0F05D125
:1008200052EA03361CBF104619460AD181EA030179
:1008300001F0004141F0FE4141F470014FF0000031
:1008400070BD41F0FE4141F4780170BD70B54FF0CC
:10085000FF0C4CF4E06C1CEA11541DBF1CEA13554C
:1008600094EA0C0F95EA0C0F00F0A7F8A4EB05042E
:1008700081EA030E52EA03354FEA013100F0888025
:100880004FEA03334FF0805545EA131343EA1263EE
:100890004FEA022245EA111545EA10654FEA0026A3
:1008A0000EF000419D4208BF964244F1FD0404F55C
:1008B000407402D25B084FEA3202B61A65EB0305B8
:1008C0005B084FEA32024FF480104FF4002CB6EB75
:1008D000020E75EB030E22BFB61A754640EA0C00F5
:1008E0005B084FEA3202B6EB020E75EB030E22BF35
:1008F000B61A754640EA5C005B084FEA3202B6EB76
:10090000020E75EB030E22BFB61A754640EA9C0034
:100910005B084FEA3202B6EB020E75EB030E22BF04
:10092000B61A754640EADC0055EA060E18D04FEAC2
:10093000051545EA16754FEA06164FEAC30343EA62
:1009400052734FEAC2025FEA1C1CC0D111F4801F2F
:100950000BD141EA00014FF000004FF0004CB6E728
:1009600011F4801F04BF01430020B4F1FD0C88BFC7
:10097000BCF5E06F3FF6AFAEB5EB030C04BFB6EBD2
:10098000020C5FEA500C50F1000041EB045170BDC5
:100990000EF0004E4EEA113114EB5C04C2BFD4EBF2
:1009A0000C0541EA045170BD41F480114FF0000E76
:1009B000013C90E645EA060E8DE60CEA135594EAF2
:1009C0000C0F08BF95EA0C0F3FF43BAF94EA0C0FF5
:1009D0000AD150EA01347FF434AF95EA0C0F7FF46A
:1009E00025AF104619462CE795EA0C0F06D152EABE
:1009F00003353FF4FDAE1046194622E750EA4106A2
:100A000018BF52EA43067FF4C5AE50EA41047FF4B2
:100A10000DAF52EA43057FF4EBAE12E74FF0FF3C17
:100A200006E000BF4FF0010C02E000BF4FF0010CE8
:100A30004DF804CD4FEA410C7FEA6C5C4FEA430C61
:100A400018BF7FEA6C5C1BD001B050EA410C0CBFB0
:100A500052EA430C91EA030F02BF90EA020F002012
:100A6000704710F1000F91EA030F58BF994208BF79
:100A700090422CBFD8176FEAE37040F00100704736
:100A80004FEA410C7FEA6C5C02D150EA013C07D18D
:100A90004FEA430C7FEA6C5CD6D152EA033CD3D0D8
:100AA0005DF8040B704700BF8446104662468C46D2
:100AB0001946634600E000BF01B5FFF7B7FF002805
:100AC00048BF10F1000F01BD4DF808EDFFF7F4FF2E
:100AD0000CBF012000205DF808FB00BF4DF808EDB9
:100AE000FFF7EAFF34BF012000205DF808FB00BFDC
:100AF0004DF808EDFFF7E0FF94BF012000205DF8FE
:100B000008FB00BF4DF808EDFFF7CEFF94BF0120B2
:100B100000205DF808FB00BF4DF808EDFFF7C4FFAB
:100B200034BF012000205DF808FB00BF4FEA410CF4
:100B30007FEA6C5C02D150EA013C0AD14FEA430CD7
:100B40007FEA6C5C02D152EA033C02D14FF0000014
:100B500070474FF0010070474FEA410212F5001252
:100B600015D211D56FF47873B3EB625212D94FEAF4
:100B7000C12343F0004343EA505311F0004F23FADE
:100B800002F018BF404270474FF00000704750EA33
:100B9000013005D111F0004008BF6FF000407047F0
:100BA0004FF00000704700BF53B94AB9002908BF91
:100BB00000281CBF4FF0FF314FF0FF3000F074B938
:100BC000ADF1080C6DE904CE00F006F8DDF804E0A4
:100BD000DDE9022304B070472DE9F047089D044683
:100BE0008E46002B4DD18A42944669D9B2FA82F2E0
:100BF00052B101FA02F3C2F1200120FA01F10CFA1C
:100C000002FC41EA030E94404FEA1C48210CBEFB53
:100C1000F8F61FFA8CF708FB16E341EA034306FBDC
:100C200007F199420AD91CEB030306F1FF3080F06B
:100C30001F81994240F21C81023E63445B1AA4B2B8
:100C4000B3FBF8F008FB103344EA034400FB07F75A
:100C5000A7420AD91CEB040400F1FF3380F00A819B
:100C6000A74240F207816444023840EA0640E41B90
:100C700000261DB1D4400023C5E900433146BDE83C
:100C8000F0878B4209D9002D00F0EF800026C5E9DE
:100C9000000130463146BDE8F087B3FA83F6002EF6
:100CA0004AD18B4202D3824200F2F980841A61EB6E
:100CB000030301209E46002DE0D0C5E9004EDDE78C
:100CC00002B9FFDEB2FA82F2002A40F09280A1EB74
:100CD0000C014FEA1C471FFA8CFE0126200CB1FBC9
:100CE000F7F307FB131140EA01410EFB03F08842C2
:100CF00008D91CEB010103F1FF3802D2884200F24F
:100D0000CB804346091AA4B2B1FBF7F007FB1011E0
:100D100044EA01440EFB00FEA64508D91CEB04047E
:100D200000F1FF3102D2A64500F2BB800846A4EBD9
:100D30000E0440EA03409CE7C6F12007B34022FAC4
:100D400007FC4CEA030C20FA07F401FA06F31C43F3
:100D5000F9404FEA1C4900FA06F3B1FBF9F8200C00
:100D60001FFA8CFE09FB181140EA014108FB0EF046
:100D7000884202FA06F20BD91CEB010108F1FF3A96
:100D800080F08880884240F28580A8F102086144A2
:100D9000091AA4B2B1FBF9F009FB101144EA0141B0
:100DA00000FB0EFE8E4508D91CEB010100F1FF345B
:100DB0006CD28E456AD90238614440EA0840A0FBF3
:100DC0000294A1EB0E01A142C846A64656D353D0C9
:100DD0005DB1B3EB080261EB0E0101FA07F722FAED
:100DE00006F3F1401F43C5E9007100263146BDE816
:100DF000F087C2F12003D8400CFA02FC21FA03F379
:100E0000914001434FEA1C471FFA8CFEB3FBF7F0F9
:100E100007FB10360B0C43EA064300FB0EF69E421E
:100E200004FA02F408D91CEB030300F1FF382FD2B7
:100E30009E422DD9023863449B1B89B2B3FBF7F65F
:100E400007FB163341EA034106FB0EF38B4208D938
:100E50001CEB010106F1FF3816D28B4214D9023E79
:100E60006144C91A46EA004638E72E46284605E797
:100E70000646E3E61846F8E64B45A9D2B9EB020868
:100E800064EB0C0E0138A3E74646EAE7204694E7F8
:100E90004046D1E7D0467BE7023B614432E730462B
:100EA00009E76444023842E7704700BF80B586B066
:100EB00000AF3B4600221A605A609A60DA601A61FD
:100EC0005A61304B304A1A602E4B00225A602D4B2B
:100ED00000229A602B4B0022DA602A4B01221A6111
:100EE000284B04225A61274B00221A76254B0122F7
:100EF0005A76244B0222DA61224B002283F820200A
:100F0000204B00229A621F4B0022DA621D4B002206
:100F100083F830201B4B00225A631A4B002283F8BF
:100F20003820184801F0D6FE0346002B01D000F00F
:100F30000BFD164B3B6006237B600023BB607F23C9
:100F4000FB6004233B6100237B613B4619460D484F
:100F500002F008F80346002B01D000F0F5FC0C4B22
:100F60003B600C237B603B461946064801F0FAFFC4
:100F70000346002B01D000F0E7FC00BF1837BD4648
:100F800080BD00BF30020020000004500080F03E11
:100F90000000214380B5A0B000AF786007F16C037A
:100FA00000221A605A609A60DA601A6107F1100331
:100FB0005C220021184607F0EAFC7B681B68254A82
:100FC000934242D14FF480433B614FF080533B66E4
:100FD00003237B610123BB610823FB6107233B6281
:100FE00002237B620223BB624FF08073FB6207F136
:100FF0001003184604F0F8FA0346002B01D000F065
:10100000A3FC154BDB6C144A43F40053D364124B1E
:10101000DB6C03F40053FB60FB680F4BDB6C0E4A88
:1010200043F00203D3640C4BDB6C03F00203BB60A0
:10103000BB680323FB660B233B6700237B6707F139
:101040006C031946054803F03FFA00BF8037BD46E0
:1010500080BD00BF000004500010024000040048A2
:1010600080B500AF1C4B1D4A1A601B4B10225A6002
:10107000194B4FF080429A60174B0022DA60164BF2
:101080004FF4E0221A61144B00225A61124B0022E5
:101090001A76114B00225A760F4B00229A760E4B8D
:1010A0000022DA760C4B00221A770B4B00225A777B
:1010B000094802F037FB0346002B01D000F044FC46
:1010C00000F062F80221044802F047FE024802F0F4
:1010D000EEFC00BF80BD00BFF002002000640040B5
:1010E00080B58AB000AF786007F1140300221A605F
:1010F0005A609A60DA601A617B681B681F4A9342E3
:1011000038D11F4B9B6D1E4A43F0007393651C4BF7
:101110009B6D03F000733B613B69194BDB6C184A14
:1011200043F00203D364164BDB6C03F00203FB6055
:10113000FB684FF440737B610223BB610023FB61BA
:1011400003233B6209237B6207F1140319460D4810
:1011500003F0BAF900220521142003F00BF9142042
:1011600003F024F900220521152003F003F91520CE
:1011700003F01CF900BF2837BD4680BD0064004065
:10118000001002400004004880B58AB000AF002380
:101190007B610023BB610123FB6100233B600023D3
:1011A0007B600023BB600023FB6000233B610123C5
:1011B0003B620E237B623B461946064802F0ADFBBC
:1011C0000346002B01D000F0BFFB00BF2837BD460F
:1011D00080BD00BFF002002080B582B000AF786013
:1011E0007B681B68094A93420CD1094B094A0021CC
:1011F000094802F0A0FC0346002B03D10221064857
:1012000002F0ABFD00BF0837BD4680BD0064004062
:10121000B002002094020020F002002080B58AB0C5
:1012200000AF07F1140300221A605A609A60DA6076
:101230001A61594BDB6C584A43F08003D364564B18
:10124000DB6C03F080033B613B69534BDB6C524A20
:1012500043F00403D364504BDB6C03F00403FB60E6
:10126000FB684D4BDB6C4C4A43F00103D3644A4BA3
:10127000DB6C03F00103BB60BB68474BDB6C464A89
:1012800043F00203D364444BDB6C03F002037B6046
:101290007B6801224FF43171404803F0A7FA012224
:1012A00004213F4803F0A2FA00224FF4E8513B48E2
:1012B00003F09CFA01224FF480514FF0904003F06C
:1012C00095FA00224FF400414FF0904003F08EFA5F
:1012D00041F6C4737B610123BB610023FB610023E2
:1012E0003B6207F1140319462C4803F0EDF8042380
:1012F0007B610123BB610023FB6100233B6207F19B
:1013000014031946264803F0DFF84FF400637B61AD
:101310000023BB610223FB6107F114031946204837
:1013200003F0D2F84FF4E0437B614FF40413BB6148
:101330000023FB6107F114031946194803F0C4F8B0
:101340004FF480537B610123BB610023FB610223C7
:101350003B6207F1140319464FF0904003F0B4F8D4
:101360004FF400437B610123BB610023FB61002339
:101370003B6207F1140319464FF0904003F0A4F8C4
:1013800000220521282002F0F5FF282003F00EF8A6
:1013900000BF2837BD4680BD00100240000800484D
:1013A0000004004880B584B000AF786039607B6885
:1013B000002B20DB7B68032B1DDC3B68002B0CBF64
:1013C00001230023DBB2FB730D497A6813465B00EF
:1013D00013449B000B440433186809497A68134688
:1013E0005B0013449B000B4408331B88FA7B1946AF
:1013F00003F0FCF900E000BF1037BD4680BD00BF20
:101400000000002080B582B000AF0346FB80FB885F
:10141000B3F5805F0DD11A4B1B7883F00103DAB26C
:10142000174B1A70164B1B7819460220FFF7BAFFAC
:1014300010E0FB88B3F5005F0CD1114B5B7883F0B3
:101440000103DAB20E4B5A700D4B5B78194603203C
:10145000FFF7A8FFFB88B3F5804F0CD1084B9B78B2
:1014600083F00103DAB2064B9A70054B9B7819465C
:101470000120FFF797FF00BF0837BD4680BD00BFC2
:101480001803002080B586B000AF0B4B9A880A4B3A
:10149000DB8813439BB27B600123BB6002233B616B
:1014A000054B1B683A1D1146184603F00DF800BFA6
:1014B0001837BD4680BD00BF3000002080B582B027
:1014C00000AF0346FB800DE00F4B1B680E4A92886D
:1014D0001146184603F072F90346002B08D101208B
:1014E00000F0D8FDFB885A1EFA80002BECD100E0FA
:1014F00000BFFB88002B01D0002300E0102318461A
:101500000837BD4680BD00BF3000002080B58CB0DC
:1015100000AF002387F82F3007F1180300221A606C
:101520005A609A60DA601A61334BDB88BB61012331
:10153000FB6101233B6202237B622F4B1B6807F197
:1015400018021146184602F0BFFF3B1D00221A6028
:101550005A609A60DA601A61274B9B887B6001238E
:10156000BB600123FB6002233B61234B1B683A1DD8
:101570001146184602F0A8FF1F4B1B681E4AD1886F
:101580000122184603F032F9012000F083FD1A4BC6
:101590001B68194A91880122184603F027F9012097
:1015A00000F078FD3220FFF789FF034687F82F30DF
:1015B00097F82F30002B02D097F82F3017E00E4B02
:1015C0001B680D4AD1880022184603F00FF902204B
:1015D00000F060FD084B1B68074A918800221846FE
:1015E00003F004F9022000F055FD97F82F3018465B
:1015F0003037BD4680BD00BF3000002080B586B0CA
:1016000000AF0023FB753B4600221A605A609A60C7
:10161000DA601A61214BDB883B6001237B60012388
:10162000BB600223FB601D4B1B683A4611461846FF
:1016300002F04AFF194B1B68184A9188002218468D
:1016400003F0D4F8154B1B68144AD18800221846C1
:1016500003F0CCF8022000F01DFD104B1B680F4A70
:1016600091880122184603F0C1F8022000F012FD13
:101670003220FFF723FF0346FB75084B1B68074A20
:10168000D1880122184603F0B1F8022000F002FDD3
:10169000FB7D18461837BD4680BD00BF30000020D6
:1016A00080B58EB000AF0346FB71002387F837305A
:1016B00007F1200300221A605A609A60DA601A610A
:1016C000594BDB883B6201237B620123BB6202230F
:1016D000FB62554B1B6807F120021146184602F0C9
:1016E000F3FE514B1B68504A91880022184603F0C4
:1016F0007DF8802387F836303FE097F83620FB7975
:101700001340DBB2002B08D1474B1B68464AD188F7
:101710000022184603F06AF807E0434B1B68424A70
:10172000D1880122184603F061F8052000F0B2FCD0
:101730003D4B1B683C4A91880122184603F056F83D
:10174000052000F0A7FC3220FFF7B8FE034687F81B
:10175000373097F83730002B50D1334B1B68324A63
:1017600091880022184603F041F8052000F092FC11
:1017700097F836305B0887F8363097F83630002B0C
:10178000BBD107F10C0300221A605A609A60DA603C
:101790001A61254BDB88FB6000233B6101237B61E1
:1017A0000223BB61204B1B6807F10C02114618464F
:1017B00002F08AFE1C4B1B681B4A918801221846C6
:1017C00003F014F8052000F065FC3220FFF776FEE8
:1017D000034687F8373097F83730002B10D1124B7B
:1017E0001B68114AD2881146184602F0E7FF0346EB
:1017F000002B07D0022387F8373004E000BF02E057
:1018000000BF00E000BF084B1B68074A9188002218
:10181000184602F0EBFF142000F03CFC97F837303C
:1018200018463837BD4680BD3000002080B582B0F4
:1018300000AF0346FB71FB791846FFF731FF034603
:1018400018460837BD4680BD80B500AF01F059F895
:1018500000F01CF8FFF7E2FCFFF728FB00F06CFB40
:1018600000F06EFC00F076F800F09CFC00F0D6FA78
:10187000FFF7F6FB00F036FC00F0C6FC00F08BFF33
:10188000014807F053FFFEE78CB2000880B596B020
:1018900000AF07F1140344220021184607F077F83F
:1018A0003B4600221A605A609A60DA601A614FF46F
:1018B000007002F0D9FF0346002B01D000F044F87D
:1018C00001237B614FF48033BB610223FB6303235D
:1018D0003B6401237B641423BB640723FB64022362
:1018E0003B6502237B6507F11403184603F012F8E9
:1018F0000346002B01D000F027F80F233B600323A1
:101900007B600023BB600023FB6000233B613B4600
:101910000421184603F012FC0346002B01D000F00E
:1019200013F800BF5837BD4680BD80B582B000AF08
:1019300078607B681B68B3F1804F01D100F0FAFF3B
:1019400000BF0837BD4680BD80B400AF72B600BF8F
:10195000FEE7000080B500AF1B4B1C4A1A601A4B13
:101960004FF482725A60184B00229A60164B4FF463
:10197000E062DA60144B00221A61134B00225A61B4
:10198000114B4FF400729A610F4B0022DA610E4B3B
:1019900000221A620C4B00225A620B4B00229A6200
:1019A000094B0722DA62084B00221A63064B082211
:1019B0005A63054804F022F90346002B01D0FFF7D3
:1019C000C3FF00BF80BD00BF1C03002000300140EA
:1019D00080B58AB000AF786007F1140300221A6066
:1019E0005A609A60DA601A617B681B68174A9342F2
:1019F00028D1174B1B6E164A43F480531366144BC1
:101A00001B6E03F480533B613B69114BDB6C104A46
:101A100043F00103D3640E4BDB6C03F00103FB6066
:101A2000FB68C2237B610223BB610023FB610323AC
:101A30003B6205237B6207F1140319464FF0904087
:101A400002F042FD00BF2837BD4680BD0030014096
:101A50000010024080B582B000AF114B1B6E104ADF
:101A600043F0010313660E4B1B6E03F001037B6012
:101A70007B680B4B9B6D0A4A43F080539365084B80
:101A80009B6D03F080533B603B6800220F216FF099
:101A9000010002F06FFC00BF0837BD4680BD00BFEB
:101AA0000010024080B58EB000AF7860002387F848
:101AB0003330344B9B6D334A43F001039365314B14
:101AC0009B6D03F00103FB60FB6807F1100207F157
:101AD00014031146184603F0F5FC3B6AFB62FB6AEF
:101AE000002B03D103F0C2FC786304E003F0BEFCDA
:101AF00003465B007B637B6B234AA2FB03239B0CA7
:101B0000013BBB62214B4FF080421A601F4B40F2F9
:101B1000E732DA601D4ABB6A53601C4B00221A612F
:101B20001A4B00229A60194B00229A61174804F060
:101B300008F9034687F8333097F83330002B1BD170
:101B4000124804F0C9F9034687F8333097F8333068
:101B5000002B11D11C2002F029FC7B680F2B08D828
:101B6000002279681C2002F005FC094A7B6813609A
:101B700002E0012387F8333097F8333018463837BE
:101B8000BD4680BD0010024083DE1B438003002061
:101B90003C00002080B400AFFEE780B400AFFEE759
:101BA00080B400AFFEE780B400AFFEE780B400AFC2
:101BB000FEE780B400AF00BFBD465DF8047B704710
:101BC00080B500AF024802F0EEF800BF80BD00BF54
:101BD000F002002080B500AF024802F0E4F800BF38
:101BE00080BD00BFF002002080B500AF024804F0C5
:101BF0001EFA00BF80BD00BF8003002080B500AF8B
:101C0000024805F085F900BF80BD00BF0009002033
:101C100080B500AF024805F07BF900BF80BD00BF72
:101C20008409002080B500AF024805F071F900BFBB
:101C300080BD00BF080A002080B500AF4FF480507F
:101C400002F0ECFD4FF4005002F0E8FD4FF480404C
:101C500002F0E4FD00BF80BD80B500AF024805F092
:101C600057F900BF80BD00BF7C08002080B400AFE2
:101C700001231846BD465DF8047B704780B582B0ED
:101C800000AF7860396006F03FFD034616221A6007
:101C90004FF0FF3318460837BD4680BD80B582B08F
:101CA00000AF78604FF0FF317868FFF7E7FFFEE79D
:101CB00080B586B000AFF860B9607A6000237B61C0
:101CC0000AE0AFF300800146BB685A1CBA60CAB292
:101CD0001A707B6901337B617A697B689A42F0DB19
:101CE0007B6818461837BD4680BD80B586B000AF0A
:101CF000F860B9607A6000237B6109E0BB685A1C18
:101D0000BA601B78184600F0FBFB7B6901337B61EE
:101D10007A697B689A42F1DB7B6818461837BD46C2
:101D200080BD80B483B000AF78604FF0FF331846B9
:101D30000C37BD465DF8047B704780B483B000AFBC
:101D4000786039603B684FF400525A6000231846AF
:101D50000C37BD465DF8047B704780B483B000AF9C
:101D60007860012318460C37BD465DF8047B704748
:101D700080B485B000AFF860B9607A60002318467F
:101D80001437BD465DF8047B7047000080B586B00F
:101D900000AF7860144A154BD31A7B617B693B61B5
:101DA000134B1B68002B02D1114B124A1A60104BC7
:101DB0001A687B6813443A699A4207D206F0A4FC79
:101DC00003460C221A604FF0FF3309E0084B1B68F2
:101DD000FB60074B1A687B681344054A1360FB6875
:101DE00018461837BD4680BD0000012000040000E1
:101DF000CC030020580B002080B400AF064BD3F872
:101E00008830054A43F47003C2F8883000BFBD46ED
:101E10005DF8047B704700BF00ED00E080B596B030
:101E200000AF07F14C0300221A605A609A6007F174
:101E3000300300221A605A609A60DA601A615A61AF
:101E40009A613B1D2C220021184606F0A0FD384B5C
:101E5000384A1A60364B4F225A60354B00229A603E
:101E6000334B40F27112DA60314B00221A61304B71
:101E700000225A612E4B00229A612D4804F080F80E
:101E80000346002B01D0FFF75FFD0023FB64002316
:101E90003B6500237B6507F14C031946244804F099
:101EA00003FE0346002B01D0FFF74EFD60233B638A
:101EB000B9237B630023BB6300233B6400237B6463
:101EC0000023BB6407F130030C221946184804F0C4
:101ED000CDF90346002B01D0FFF736FD00237B60D0
:101EE0000023BB600023FB6000233B6100237B6178
:101EF0004FF40053BB610023FB6100233B624FF0B2
:101F000000737B620023BB620023FB623B1D19460A
:101F1000074804F02FFE0346002B01D0FFF714FD05
:101F2000034800F07FF800BF5837BD4680BD00BFB2
:101F3000D0030020002C014080B584B000AF3B1DD1
:101F400000221A605A609A60144B154A1A60134BAB
:101F50004F225A60114B00229A60104B4FF6FF72CD
:101F6000DA600E4B00229A610C4803F0EAFE034649
:101F7000002B01D0FFF7E8FC00237B600023FB600F
:101F80003B1D1946054804F08FFD0346002B01D088
:101F9000FFF7DAFC00BF1037BD4680BD1C040020EF
:101FA0000010004080B485B000AF78607B681B688B
:101FB0000A4A93420BD10A4B1B6E094A43F4006351
:101FC0001366074B1B6E03F40063FB60FB6800BFE6
:101FD0001437BD465DF8047B704700BF002C0140FC
:101FE0000010024080B485B000AF78607B681B6849
:101FF0000A4A93420BD10A4B9B6D094A43F01003E6
:102000009365074B9B6D03F01003FB60FB6800BFFB
:102010001437BD465DF8047B704700BF00100040D8
:102020000010024080B588B000AF786007F10C0363
:1020300000221A605A609A60DA601A617B681B6835
:10204000124A93421DD1124BDB6C114A43F001033B
:10205000D3640F4BDB6C03F00103BB60BB684FF430
:102060000063FB6002233B6102237B610023BB61B1
:102070000123FB6107F10C0319464FF0904002F079
:1020800023FA00BF2037BD4680BD00BF002C0140B1
:102090000010024080B584B000AF0346FB80FB888F
:1020A000C3F17F4303F57F0303F56A436033FB818C
:1020B0000B4803F09DFE0A4B1B68FA895A6203E045
:1020C000074B1B685B6AFB81FB894EF65F229342DC
:1020D000F6D9034803F0D8FE00BF1037BD4680BDD7
:1020E0001C04002080B500AF134B144A1A60124B39
:1020F0004FF4E1325A60104B00229A600E4B0022DE
:10210000DA600D4B00221A610B4B0C225A610A4B0C
:1021100000229A61084B00221A62074B00225A6281
:10212000054804F0BDFD0346002B01D0FFF70CFC71
:1021300000F0A6FA00BF80BD7C08002000800040AF
:1021400080B500AF154B164A1A60144B4FF4E132BC
:102150005A60124B00229A60104B0022DA600F4B3B
:1021600000221A610D4B0C225A610C4B00229A611D
:102170000A4B0022DA61094B00221A62074B002247
:102180005A62064804F08CFD0346002B01D0FFF78D
:10219000DBFB00F04BFA00BF80BD00BF0009002050
:1021A0000038014080B500AF154B164A1A60144B39
:1021B0004FF4E1325A60124B00229A60104B002219
:1021C000DA600F4B00221A610D4B0C225A610C4B46
:1021D00000229A610A4B0022DA61094B00221A623E
:1021E000074B00225A62064804F05AFD0346002BB2
:1021F00001D0FFF7A9FB00F027FA00BF80BD00BFA8
:10220000840900200044004080B500AF154B164AF9
:102210001A60144B4FF4E1325A60124B00229A605C
:10222000104B0022DA600F4B00221A610D4B0C227A
:102230005A610C4B00229A610A4B0022DA61094B69
:1022400000221A62074B00225A62064804F028FD59
:102250000346002B01D0FFF777FB00F003FA00BF25
:1022600080BD00BF080A00200048004080B5A6B02D
:1022700000AF786007F1840300221A605A609A6008
:10228000DA601A6107F128035C220021184606F083
:102290007EFB7B681B68944A934243D12023BB6238
:1022A00000237B6507F12803184603F09DF90346D8
:1022B000002B01D0FFF748FB8C4BDB6D8B4A43F0C2
:1022C0000103D365894BDB6D03F001037B627B6AFD
:1022D000864BDB6C854A43F00403D364834BDB6C91
:1022E00003F004033B623B6A0323C7F884300223F4
:1022F000C7F888300023C7F88C300323C7F8903024
:102300000823C7F8943007F184031946784802F08F
:10231000DBF800220521462002F02CF8462002F0CE
:1023200045F8DCE07B681B68724A934245D1012383
:10233000BB620023BB6407F12803184603F054F97D
:102340000346002B01D0FFF7FFFA684B1B6E674A6C
:1023500043F480431366654B1B6E03F48043FB61BB
:10236000FB69624BDB6C614A43F00103D3645F4B52
:10237000DB6C03F00103BB61BB694FF4C063C7F8BA
:1023800084300223C7F888300023C7F88C30032339
:10239000C7F890300723C7F8943007F18403194633
:1023A0004FF0904002F090F800220521252001F026
:1023B000E1FF252001F0FAFF91E07B681B684E4A9F
:1023C000934244D10223BB620023FB6407F128033C
:1023D000184603F009F90346002B01D0FFF7B4FAC1
:1023E000424B9B6D414A43F4003393653F4B9B6DD9
:1023F00003F400337B617B693C4BDB6C3B4A43F06D
:102400000103D364394BDB6C03F001033B613B698F
:102410000C23C7F884300223C7F888300023C7F89C
:102420008C300323C7F890300723C7F8943007F1A6
:10243000840319464FF0904002F046F8002205212F
:10244000262001F097FF262001F0B0FF47E07B68CF
:102450001B682A4A934242D10423BB6200233B6596
:1024600007F12803184603F0BFF80346002B01D0FC
:10247000FFF76AFA1D4B9B6D1C4A43F4802393655A
:102480001A4B9B6D03F48023FB60FB68174BDB6CDE
:10249000164A43F00403D364144BDB6C03F00403CB
:1024A000BB60BB683023C7F884300223C7F888308C
:1024B0000023C7F88C300323C7F890300723C7F8F0
:1024C000943007F184031946094801F0FDFF00220A
:1024D0000521272001F04EFF272001F067FF00BFF4
:1024E0009837BD4680BD00BF00800040001002400C
:1024F0000008004800380140004400400048004007
:1025000080B582B000AF7860391D4FF6FF730122AD
:10251000034804F013FC7B6818460837BD4680BDAD
:102520000009002080B582B000AF78607B681B682E
:102530002A4A93420FD12A4B1B785A1CD1B2284AFF
:1025400011701A46274B1978274B995401222549B7
:10255000264804F087FC7B681B68254A93420FD10C
:10256000244B1B785A1CD1B2224A11701A46224BB6
:102570001978224B995401221F49214804F072FC1A
:102580007B681B681F4A93420FD11F4B1B785A1C54
:10259000D1B21D4A11701A461C4B19781C4B995424
:1025A00001221A491B4804F05DFC7B681B681A4A2B
:1025B00093420FD1194B1B785A1CD1B2174A117094
:1025C0001A46174B1978174B99540122144916488B
:1025D00004F048FC00BF0837BD4680BD003801400C
:1025E0006C050020680400206C0400200009002015
:1025F00000440040700600206D050020700500209A
:102600008409002000480040740700207106002063
:1026100074060020080A002000800040780800208E
:1026200075070020780700207C08002080B500AFE7
:1026300001220349034804F015FC00BF80BD00BF20
:10264000680400200009002080B500AF0122034982
:10265000034804F007FC00BF80BD00BF6D050020EB
:102660008409002080B500AF01220349034804F02B
:10267000F9FB00BF80BD00BF71060020080A0020E2
:1026800080B500AF01220549054804F0EBFB0022AC
:102690008021044802F0AAF800BF80BD7507002021
:1026A0007C0800200008004880B582B000AF0346D7
:1026B000FB71FEF72BFF7820FFF7B8F80020FEF73C
:1026C000EFFFFB791846FEF7EBFFFEF797FF00BF21
:1026D0000837BD4680BD80B582B000AF0346FB71B0
:1026E000FEF714FF7820FFF7A1F84020FEF7D8FF8F
:1026F000FB791846FEF7D4FFFEF780FF00BF0837CE
:10270000BD4680BD80B582B000AF03460A46FB716E
:102710001346BB71BB79002B04D1FB791846FFF738
:10272000C3FF03E0FB791846FFF7D5FF00BF08376A
:10273000BD4680BD80B582B000AF0023FB711FE0B5
:10274000FB79503BDBB200211846FFF7DBFF00218D
:102750000020FFF7D7FF00211020FFF7D3FF002351
:10276000BB7106E001210020FFF7CCFFBB790133EC
:10277000BB7197F90630002BF4DAFB790133FB715A
:10278000FB79072BDCD90021002000F06BF800BF9B
:102790000837BD4680BD80B500AFFEF773FEC82088
:1027A00000F0E8F80021AE20FFF7ACFF0021402048
:1027B000FFF7A8FF0021B020FFF7A4FF0021C820E9
:1027C000FFF7A0FF00218120FFF79CFF0021FF20E1
:1027D000FFF798FF0021A120FFF794FF0021A6201A
:1027E000FFF790FF0021A820FFF78CFF00211F209A
:1027F000FFF788FF0021D320FFF784FF002100208E
:10280000FFF780FF0021D520FFF77CFF0021F0209B
:10281000FFF778FF0021D920FFF774FF0021222065
:10282000FFF770FF0021DA20FFF76CFF0021022084
:10283000FFF768FF0021DB20FFF764FF002149203C
:10284000FFF760FF00218D20FFF75CFF00211420BF
:10285000FFF758FF0021AF20FFF754FFFFF76AFF93
:1028600000BF80BD80B582B000AF03460A46FB7151
:102870001346BB71BB79503BDBB200211846FFF712
:1028800041FFFB791B09DBB243F01003DBB20021EF
:102890001846FFF737FFFB7903F00F03DBB2002187
:1028A0001846FFF72FFF00BF0837BD4680BD000068
:1028B000DFF834D0FFF7A0FA0C480D490D4A002389
:1028C00002E0D458C4500433C4188C42F9D30A4AE5
:1028D0000A4C002301E013600432A242FBD306F04D
:1028E00021F8FEF7B1FFFEE7000001200000002004
:1028F0001402002050B9000814020020540B0020DC
:10290000FEE780B582B000AF0023FB71032001F029
:1029100026FD0F20FFF7C6F80346002B02D0012347
:10292000FB7101E0FFF796F8FB7918460837BD46C2
:1029300080BD000080B400AF064B1B781A46064BE2
:102940001B681344044A136000BFBD465DF8047B56
:10295000704700BF400000208C0A002080B400AF08
:10296000034B1B681846BD465DF8047B704700BFEB
:102970008C0A002080B584B000AF7860FFF7EEFFCE
:10298000B8607B68FB60FB68B3F1FF3F05D00A4B82
:102990001B781A46FB681344FB6000BFFFF7DEFF9D
:1029A0000246BB68D31AFA689A42F7D800BF00BF44
:1029B0001037BD4680BD00BF4000002080B483B00A
:1029C00000AF786039607B689B6823F47C123B68B9
:1029D0001A437B689A6000BF0C37BD465DF8047BE4
:1029E000704780B483B000AF786039607B689B68C3
:1029F00023F0E0723B681A437B689A6000BF0C3793
:102A0000BD465DF8047B704780B483B000AF78604A
:102A10007B689B6803F0E07318460C37BD465DF891
:102A2000047B704780B487B000AFF860B9607A600B
:102A30003B60FB6860331A46BB689B0013447B61B4
:102A40007B691A68084B13407A6802F0F8413A68CB
:102A50000A43134343F000427B691A6000BF1C37EE
:102A6000BD465DF8047B704700F0FF0380B485B07D
:102A700000AF786039607B6860331A463B689B0022
:102A80001344FB60FB681B6803F0F84318461437D7
:102A9000BD465DF8047B704780B487B000AFF86036
:102AA000B9607A60FB6860331A46BB689B001344C8
:102AB0007B617B691B6823F000427B681A437B695A
:102AC0001A6000BF1C37BD465DF8047B704780B4B8
:102AD00087B000AFF860B9607A60FB6830331A469F
:102AE000BB681B0A9B0003F00C0313447B617B69EA
:102AF0001A68BB6803F01F031F2101FA03F3DB43CD
:102B00001A407B689B0E03F01F01BB6803F01F0394
:102B100001FA03F31A437B691A6000BF1C37BD46F4
:102B20005DF8047B704780B487B000AFF860B9608F
:102B30007A60FB6814331A46BB685B0E9B0003F097
:102B4000040313447B617B691A68BB681B0D03F0A7
:102B50001F03072101FA03F3DB431A40BB681B0D77
:102B600003F01F03796801FA03F31A437B691A60C3
:102B700000BF1C37BD465DF8047B704780B485B04C
:102B800000AFF860B9607A60FB68D3F8B020BB682A
:102B9000C3F31203DB431A407B6803F018030849B0
:102BA000D940BB680B40C3F312031A43FB68C3F858
:102BB000B02000BF1437BD465DF8047B704700BFEE
:102BC000FFFF070080B483B000AF78607B689B682C
:102BD00023F0204323F03F037A68936000BF0C3753
:102BE000BD465DF8047B704780B483B000AF786069
:102BF0007B689B6803F00053B3F1005F01D10123B0
:102C000000E0002318460C37BD465DF8047B704792
:102C100080B483B000AF78607B689B6823F010437A
:102C200023F03F0343F080527B689A6000BF0C376B
:102C3000BD465DF8047B704780B483B000AF786018
:102C40007B689B6803F08053B3F1805F01D101235F
:102C500000E0002318460C37BD465DF8047B704742
:102C600080B483B000AF78607B689B6803F0010399
:102C7000012B01D1012300E0002318460C37BD468B
:102C80005DF8047B704780B483B000AF78607B68E8
:102C90009B6803F00403042B01D1012300E000230F
:102CA00018460C37BD465DF8047B704780B483B08E
:102CB00000AF78607B689B6803F00803082B01D1A4
:102CC000012300E0002318460C37BD465DF8047B65
:102CD0007047000080B588B000AF78600023FB77B4
:102CE0000023BB607B68002B01D101232CE17B68B2
:102CF0001B69002B7B685B6D002B09D17868FEF7A0
:102D000049F97B6800229A657B68002283F850208D
:102D10007B681B681846FFF767FF0346002B04D04B
:102D20007B681B681846FFF74DFF7B681B681846D9
:102D3000FFF782FF0346002B15D17B681B681846FE
:102D4000FFF766FF824B1B689B09824AA2FB0323A5
:102D50009B0901335B00BB6002E0BB68013BBB60C9
:102D6000BB68002BF9D17B681B681846FFF764FF2E
:102D70000346002B0DD17B685B6D43F010027B682E
:102D80005A657B689B6D43F001027B689A6501235D
:102D9000FB777B681B681846FFF775FF78617B68D7
:102DA0005B6D03F01003002B40F0C5807B69002BA6
:102DB00040F0C1807B685B6D23F4817343F00202B5
:102DC0007B685A657B681B681846FFF749FF034616
:102DD000002B0BD16048FFF743FF0346002B05D1C2
:102DE0007B685B6819465D48FFF7E8FD7B685B7EA2
:102DF0005A037B685B6B1A437B68DB681A437B680A
:102E00009B681A437B6893F820301B041343BB6113
:102E10007B6893F82030012B06D17B685B6A013B0D
:102E20005B04BA691343BB617B689B6A002B09D0C2
:102E30007B689B6A03F470727B68DB6A1343BA6930
:102E40001343BB617B681B68DA68454B13407A68A3
:102E50001268B9690B43D3607B681B681846FFF79B
:102E600012FF38617B681B681846FFF71FFFF86088
:102E70003B69002B3DD1FB68002B3AD17B681B7E60
:102E80009A037B6893F830305B001343BB617B6827
:102E90001B68DB6823F4804323F002037A6812681E
:102EA000B9690B43D3607B6893F83830012B18D194
:102EB0007B681B681B6923F4FF6323F004037A68B3
:102EC000D16B7A68126C11437A68526C11437A683C
:102ED000926C0A431A437B681B6842F001021A6134
:102EE00007E07B681B681A697B681B6822F0010297
:102EF0001A617B681B69012B0CD17B681B681B6BFB
:102F000023F00F017B68DB695A1E7B681B680A434C
:102F10001A6307E07B681B681A6B7B681B6822F0EA
:102F20000F021A637B685B6D23F0030343F0010219
:102F30007B685A6507E07B685B6D43F010027B6835
:102F40005A650123FB77FB7F18462037BD4680BDBD
:102F500038000020632D3E0500000450000304509B
:102F600007C0F0FF80B5B6B000AF786039600023CD
:102F700087F8D7300023FB607B6893F85030012B33
:102F800001D10223B9E37B68012283F850207B68DA
:102F90001B681846FFF777FE0346002B40F09E8320
:102FA0003B685B68052B24D83B685B68023B032BBE
:102FB0001BD801A252F823F0C92F0008D12F000816
:102FC000D92F0008E12F00083B680C225A6011E05D
:102FD0003B6812225A600DE03B6818225A6009E0F3
:102FE0003B684FF480725A6004E03B6806225A60E6
:102FF00000E000BF7B6818683B6859683B681B6845
:103000001A46FFF764FD7B681B681846FFF73BFE16
:10301000C7F8D0007B681B681846FFF747FEC7F863
:10302000CC00D7F8D030002B40F0A681D7F8CC30B8
:10303000002B40F0A1817B6818683B6819683B68E9
:103040009B681A46FFF76FFD3B685A697B681B68EF
:10305000DB68DB0803F003035B0002FA03F3C7F845
:10306000C8303B681B69042B0AD07B6818683B6832
:1030700019693B681A68D7F8C830FFF7D3FC7BE1C1
:103080007B681B6800211846FFF7F0FC0346C3F37A
:103090001203002B0AD17B681B6800211846FFF73A
:1030A000E5FC03469B0E03F01F021EE07B681B68D5
:1030B00000211846FFF7DAFC0346C7F8BC30D7F802
:1030C000BC3093FAA3F3C7F8B830D7F8B830C7F8D4
:1030D000C030D7F8C030002B01D1202304E0D7F84E
:1030E000C030B3FA83F3DBB21A463B681B68C3F304
:1030F0001203002B05D13B681B689B0E03F01F03D6
:1031000018E03B681B68C7F8B030D7F8B03093FAC6
:10311000A3F3C7F8AC30D7F8AC30C7F8B430D7F861
:10312000B430002B01D1202304E0D7F8B430B3FA37
:1031300083F3DBB29A4206D17B681B680022002130
:103140001846FFF7A9FC7B681B6801211846FFF7AA
:103150008DFC0346C3F31203002B0AD17B681B6866
:1031600001211846FFF782FC03469B0E03F01F0265
:103170001EE07B681B6801211846FFF777FC0346B9
:10318000C7F8A430D7F8A43093FAA3F3C7F8A03057
:10319000D7F8A030C7F8A830D7F8A830002B01D155
:1031A000202304E0D7F8A830B3FA83F3DBB21A4641
:1031B0003B681B68C3F31203002B05D13B681B68F7
:1031C0009B0E03F01F0318E03B681B68C7F898309C
:1031D000D7F8983093FAA3F3C7F89430D7F894301F
:1031E000C7F89C30D7F89C30002B01D1202304E095
:1031F000D7F89C30B3FA83F3DBB29A4206D17B68EE
:103200001B68002201211846FFF746FC7B681B68FB
:1032100002211846FFF72AFC0346C3F31203002BD2
:103220000AD17B681B6802211846FFF71FFC034682
:103230009B0E03F01F021EE07B681B6802211846EC
:10324000FFF714FC0346C7F88C30D7F88C3093FA9C
:10325000A3F3C7F88830D7F88830C7F89030D7F88C
:103260009030002B01D1202304E0D7F89030B3FA3E
:1032700083F3DBB21A463B681B68C3F31203002BCF
:1032800005D13B681B689B0E03F01F0316E03B68EB
:103290001B68C7F88030D7F8803093FAA3F3FB6738
:1032A000FB6FC7F88430D7F88430002B01D120237E
:1032B00004E0D7F88430B3FA83F3DBB29A4206D144
:1032C0007B681B68002202211846FFF7E5FB7B683C
:1032D0001B6803211846FFF7C9FB0346C3F312031B
:1032E000002B0AD17B681B6803211846FFF7BEFB41
:1032F00003469B0E03F01F0217E07B681B68032147
:103300001846FFF7B3FB03467B677B6F93FAA3F383
:103310003B673B6FBB67BB6F002B01D1202303E0F2
:10332000BB6FB3FA83F3DBB21A463B681B68C3F387
:103330001203002B05D13B681B689B0E03F01F0393
:1033400011E03B681B68BB66BB6E93FAA3F37B6618
:103350007B6EFB66FB6E002B01D1202303E0FB6E2E
:10336000B3FA83F3DBB29A4206D17B681B68002272
:1033700003211846FFF790FB7B681B681846FFF790
:103380006FFC0346002B40F03F817B6818683B6868
:1033900019683B68DB681A46FFF7F0FB3B68DB689F
:1033A0008E4A934240F030817B6818683B681B6806
:1033B000C3F31203002B0BD13B681B689B0E013338
:1033C00003F01F03092B94BF01230023DBB219E094
:1033D0003B681B68FB65FB6D93FAA3F3BB65BB6D94
:1033E0003B663B6E002B01D1202303E03B6EB3FA1A
:1033F00083F3DBB2013303F01F03092B94BF0123D6
:103400000023DBB2002B79D03B681B68C3F31203A7
:10341000002B07D13B681B689B0E01339B0603F012
:10342000F84215E03B681B683B653B6D93FAA3F3DC
:10343000FB64FB6C7B657B6D002B01D1202303E0DB
:103440007B6DB3FA83F3DBB201339B0603F0F842E2
:103450003B681B68C3F31203002B09D13B681B6850
:103460009B0E013303F01F03012101FA03F317E060
:103470003B681B687B647B6C93FAA3F33B643B6CF7
:10348000BB64BB6C002B01D1202303E0BB6CB3FAFF
:1034900083F3DBB2013303F01F03012101FA03F3CD
:1034A00042EA03013B681B68C3F31203002B0AD1F5
:1034B0003B681B689B0E013303F01F0213465B0041
:1034C00013441B0518E03B681B68BB63BB6B93FA96
:1034D000A3F37B637B6BFB63FB6B002B01D120238E
:1034E00003E0FB6BB3FA83F3DBB2013303F01F029B
:1034F00013465B0013441B050B4380E03B681B68CD
:10350000C3F31203002B07D13B681B689B0E0133EA
:103510009B0603F0F84215E03B681B68FB62FB6A00
:1035200093FAA3F3BB62BB6A3B633B6B002B01D1F5
:10353000202303E03B6BB3FA83F3DBB201339B063A
:1035400003F0F8423B681B68C3F31203002B09D158
:103550003B681B689B0E013303F01F03012101FA36
:1035600003F317E03B681B683B623B6A93FAA3F3E3
:10357000FB61FB697B627B6A002B01D1202303E0A6
:103580007B6AB3FA83F3DBB2013303F01F0301213B
:1035900001FA03F342EA03013B681B68C3F3120319
:1035A000002B0DD13B681B689B0E013303F01F02FB
:1035B00013465B0013441E3B1B0543F000731DE0E4
:1035C0003B681B687B617B6993FAA3F33B613B69B2
:1035D000BB61BB69002B03D1202305E000007F40C5
:1035E000BB69B3FA83F3DBB2013303F01F02134666
:1035F0005B0013441E3B1B0543F000730B433A680A
:1036000092681946FFF78FFA3B681A683D4B1340E2
:10361000002B6CD03C48FFF7F7F9C7F8C4003B68B3
:103620001B683A4A934227D1D7F8C43003F4000309
:10363000002B21D17B681B68354A934257D1D7F8BC
:10364000C43043F4000319462F48FFF7CAF9314B41
:103650001B689B09304AA2FB03239B095A1C134693
:103660005B0013449B00FB6002E0FB68013BFB60D6
:10367000FB68002BF9D13AE03B681B68274A93426C
:1036800013D1D7F8C43003F08073002B0DD17B68C1
:103690001B681F4A93422AD1D7F8C43043F0807385
:1036A00019461948FFF79DF921E03B681B681C4A41
:1036B00093421CD1D7F8C43003F48003002B16D1F9
:1036C0007B681B68124A934211D1D7F8C43043F487
:1036D000800319460C48FFF784F908E07B685B6DAE
:1036E00043F020027B685A65012387F8D7307B6856
:1036F000002283F8502097F8D7301846D837BD46B7
:1037000080BD00BF0000088000030450000052C7C5
:103710000000045038000020632D3E05000084CBDB
:103720000100008080B584B000AF78607B68002B1A
:1037300001D10123EDE07B6893F82030DBB2002B50
:1037400002D17868FDF7CCFC7B681B681A687B683F
:103750001B6842F001021A60FFF700F9F86012E0FE
:10376000FFF7FCF80246FB68D31A0A2B0BD97B68DB
:103770005B6A43F400327B685A627B68052283F8F7
:1037800020200123C5E07B681B685B6803F0010310
:10379000002BE5D07B681B681A687B681B6822F0E9
:1037A00002021A60FFF7DAF8F86012E0FFF7D6F8C5
:1037B0000246FB68D31A0A2B0BD97B685B6A43F479
:1037C00000327B685A627B68052283F8202001233F
:1037D0009FE07B681B685B6803F00203002BE5D168
:1037E0007B681B7E012B08D17B681B681A687B688D
:1037F0001B6842F080021A6007E07B681B681A6849
:103800007B681B6822F080021A607B685B7E012B5C
:1038100008D17B681B681A687B681B6842F040020D
:103820001A6007E07B681B681A687B681B6822F0D7
:1038300040021A607B689B7E012B08D17B681B6865
:103840001A687B681B6842F020021A6007E07B68F8
:103850001B681A687B681B6822F020021A607B686C
:10386000DB7E012B08D17B681B681A687B681B68AC
:1038700022F010021A6007E07B681B681A687B68F8
:103880001B6842F010021A607B681B7F012B08D175
:103890007B681B681A687B681B6842F008021A6024
:1038A00007E07B681B681A687B681B6822F00802C7
:1038B0001A607B685B7F012B08D17B681B681A68E4
:1038C0007B681B6842F004021A6007E07B681B6893
:1038D0001A687B681B6822F004021A607B689A6889
:1038E0007B68DB681A437B681B691A437B685B69EA
:1038F00042EA03017B685B685A1E7B681B680A43C7
:10390000DA617B6800225A627B68012283F82020FA
:10391000002318461037BD4680BD80B487B000AF85
:10392000786039607B681B687B617B6893F8203026
:10393000FB74FB7C012B03D0FB7C022B40F0AA80A4
:103940007B69D3F8003243F001027B69C3F800229F
:103950003B685B6903F01F03012202FA03F3FB607B
:103960007B69D3F81C22FB68DB431A407B69C3F8F0
:103970001C223B68DB69002B23D17B69D3F80C2226
:10398000FB68DB431A407B69C3F80C223B68DB68A9
:1039900019043B685B689BB23A68526919437B69BA
:1039A000483243F832103B689B6819043B681B6837
:1039B0009AB23B685B690A4379694833DB000B4480
:1039C0005A603B68DB69012B22D17B69D3F80C225A
:1039D000FB681A437B69C3F80C223B681B68190417
:1039E0003B685B689BB23A68526919437B6948320D
:1039F00043F832103B689B6819043B68DB689AB255
:103A00003B685B690A4379694833DB000B445A60C1
:103A10003B689B69002B09D17B69D3F80422FB68C2
:103A2000DB431A407B69C3F8042207E07B69D3F8C3
:103A30000422FB681A437B69C3F804223B681B69B4
:103A4000002B09D17B69D3F81422FB68DB431A40B1
:103A50007B69C3F8142207E07B69D3F81422FB6862
:103A60001A437B69C3F814223B681B6A012B07D1F8
:103A70007B69D3F81C22FB681A437B69C3F81C22BC
:103A80007B69D3F8003223F001027B69C3F800227E
:103A9000002306E07B685B6A43F480227B685A62FD
:103AA000012318461C37BD465DF8047B704780B57E
:103AB00084B000AF78607B6893F82030DBB2012BD4
:103AC0002ED17B68022283F820207B681B681A684D
:103AD0007B681B6822F001021A60FEF73FFFF86066
:103AE00012E0FEF73BFF0246FB68D31A0A2B0BD904
:103AF0007B685B6A43F400327B685A627B6805220C
:103B000083F82020012312E07B681B685B6803F0C8
:103B10000103002BE5D17B6800225A62002306E0F6
:103B20007B685B6A43F400227B685A620123184673
:103B30001037BD4680BD80B487B000AFF860B96073
:103B40007A603B60FB6893F82030FB75FB7D012BAE
:103B500003D0FB7D022B40F0F380BB68002B0ED11D
:103B6000FB681B68DB6803F00303002B16D1FB68BE
:103B70005B6A43F40012FB685A620123E7E0FB68CA
:103B80001B681B6903F00303002B07D1FB685B6A0A
:103B900043F40012FB685A620123D8E0FB681A68FC
:103BA000BB681B331B0113441B6803F004027B68D2
:103BB0009A607B689B68002B0CD1FB681A68BB6815
:103BC0001B331B0113441B685B0DC3F30A027B68A4
:103BD0001A600BE0FB681A68BB681B331B011344B7
:103BE0001B68DB0823F060427B685A60FB681A6838
:103BF000BB681B331B0113441B6803F002027B6884
:103C0000DA60FB681A68BB681B331B01134404337A
:103C10001B6803F00F027B681A61FB681A68BB68B7
:103C20001B331B01134404331B681B0ADAB27B6885
:103C30009A61FB681A68BB681B331B011344043389
:103C40001B681B0C9AB27B685A61FB681A68BB68D8
:103C50001B01134403F5DC731B68DAB23B681A706E
:103C6000FB681A68BB681B01134403F5DC731B680F
:103C70001A0A3B680133D2B21A70FB681A68BB6833
:103C80001B01134403F5DC731B681A0C3B680233F9
:103C9000D2B21A70FB681A68BB681B01134403F5A3
:103CA000DC731B681A0E3B680333D2B21A70FB68D0
:103CB0001A68BB681B01134403F5DE731A683B687E
:103CC0000433D2B21A70FB681A68BB681B01134434
:103CD00003F5DE731B681A0A3B680533D2B21A700B
:103CE000FB681A68BB681B01134403F5DE731B688D
:103CF0001A0C3B680633D2B21A70FB681A68BB68AC
:103D00001B01134403F5DE731B681A0E3B6807336F
:103D1000D2B21A70BB68002B08D1FB681B68DA6846
:103D2000FB681B6842F02002DA6007E0FB681B6852
:103D30001A69FB681B6842F020021A61002306E042
:103D4000FB685B6A43F48022FB685A6201231846D1
:103D50001C37BD465DF8047B704780B485B000AF6A
:103D6000786039607B6893F82030FB73FB7B012B14
:103D700002D0FB7B022B09D17B681B6859697B68E9
:103D80001B683A680A435A61002306E07B685B6A55
:103D900043F480227B685A62012318461437BD46DB
:103DA0005DF8047B704780B58AB000AF786000236F
:103DB0007B627B681B685B693B627B681B685B6836
:103DC000FB617B681B689B68BB617B681B68DB6869
:103DD0007B617B681B681B693B617B681B689B6917
:103DE000FB603B6A03F00103002B7CD0BB6903F04E
:103DF0000103002B23D07B681B6801229A60BB69FA
:103E000003F00203002B03D0786800F083F916E07A
:103E1000BB6903F00403002B04D07B6A43F4006306
:103E20007B620CE0BB6903F00803002B04D07B6AC3
:103E300043F480537B6202E0786800F089F9BB6943
:103E400003F48073002B24D07B681B684FF48072CE
:103E50009A60BB6903F40073002B03D0786800F00C
:103E600063F916E0BB6903F48063002B04D07B6A1E
:103E700043F400537B620CE0BB6903F40063002B46
:103E800004D07B6A43F480437B6202E0786800F0F0
:103E900069F9BB6903F48033002B24D07B681B686D
:103EA0004FF480329A60BB6903F40033002B03D0D7
:103EB000786800F043F916E0BB6903F48023002B17
:103EC00004D07B6A43F400437B620CE0BB6903F4DB
:103ED0000023002B04D07B6A43F480337B6202E032
:103EE000786800F049F93B6A03F00803002B0CD016
:103EF0007B6903F01003002B07D07B6A43F4007347
:103F00007B627B681B681022DA603B6A03F0040363
:103F1000002B0BD07B6903F00803002B06D07B68D5
:103F20001B680822DA60786800F030F93B6A03F019
:103F30000203002B09D07B681B68DB6803F00303D6
:103F4000002B02D07868FDF747F93B6A03F0400385
:103F5000002B0CD03B6903F01003002B07D07B6AC9
:103F600043F480637B627B681B6810221A613B6AA2
:103F700003F02003002B0BD03B6903F00803002B58
:103F800006D07B681B6808221A61786800F012F975
:103F90003B6A03F01003002B09D07B681B681B6988
:103FA00003F00303002B02D0786800F0F9F83B6AB5
:103FB00003F40033002B0BD0FB6903F01003002B3C
:103FC00006D07B681B6810225A60786800F0FCF805
:103FD0003B6A03F48033002B0BD0FB6903F008032A
:103FE000002B06D07B681B6808225A60786800F0B6
:103FF000F5F83B6A03F40043002B7BD0FB6903F028
:104000000403002B72D03B6A03F48073002B08D0AA
:10401000FB6803F00103002B03D07B6A43F001032C
:104020007B623B6A03F40073002B08D0FB6803F04B
:104030000203002B03D07B6A43F002037B623B6ADE
:1040400003F48063002B08D0FB6803F00403002B0B
:1040500003D07B6A43F004037B623B6A03F4006392
:10406000002B43D0FB6803F07003002B3ED0FB68AD
:1040700003F07003602B2BD0602B2ED8502B22D056
:10408000502B2AD8402B19D0402B26D8302B10D0BB
:10409000302B22D8102B02D0202B05D01DE07B6ABC
:1040A00043F008037B6219E07B6A43F010037B62F4
:1040B00014E07B6A43F020037B620FE07B6A43F0ED
:1040C00040037B620AE07B6A43F080037B6205E089
:1040D0007B6A43F480737B6200E000BF7B681B68EF
:1040E0009A697B681B6822F070029A617B681B6882
:1040F00004225A607B6A002B08D07B685A6A7B6A6C
:104100001A437B685A62786800F072F800BF28375B
:10411000BD4680BD80B483B000AF786000BF0C376F
:10412000BD465DF8047B704780B483B000AF786013
:1041300000BF0C37BD465DF8047B704780B483B088
:1041400000AF786000BF0C37BD465DF8047B704758
:1041500080B483B000AF786000BF0C37BD465DF817
:10416000047B704780B483B000AF786000BF0C3729
:10417000BD465DF8047B704780B483B000AF7860C3
:1041800000BF0C37BD465DF8047B704780B483B038
:1041900000AF786000BF0C37BD465DF8047B704708
:1041A00080B483B000AF786000BF0C37BD465DF8C7
:1041B000047B704780B483B000AF786000BF0C37D9
:1041C000BD465DF8047B704780B483B000AF786073
:1041D00000BF0C37BD465DF8047B704780B483B0E8
:1041E00000AF786000BF0C37BD465DF8047B7047B8
:1041F00080B483B000AF786000BF0C37BD465DF877
:10420000047B704780B485B000AF78607B6803F0B2
:104210000703FB600C4BDB68BB60BA684FF6FF031B
:104220001340BB60FB681A02BB68134343F0BF63D3
:1042300043F40033BB60044ABB68D36000BF14374B
:10424000BD465DF8047B704700ED00E080B400AF30
:10425000044BDB681B0A03F007031846BD465DF8F4
:10426000047B704700ED00E080B483B000AF0346EC
:10427000FB7197F90730002B0BDBFB7903F01F0272
:10428000074997F907305B09012000FA02F241F86B
:10429000232000BF0C37BD465DF8047B704700BF8C
:1042A00000E100E080B483B000AF03463960FB71E9
:1042B00097F90730002B0ADB3B68DAB20C4997F913
:1042C00007301201D2B20B4483F800230AE03B68A6
:1042D000DAB20849FB7903F00F03043B1201D2B2B2
:1042E0000B441A7600BF0C37BD465DF8047B70475F
:1042F00000E100E000ED00E080B489B000AFF860BC
:10430000B9607A60FB6803F00703FB61FB69C3F1E6
:104310000703042B28BF0423BB61FB690433062B6E
:1043200002D9FB69033B00E000237B614FF0FF32C1
:10433000BB6902FA03F3DA43BB681A407B699A400F
:104340004FF0FF317B6901FA03F3D9437B680B40DF
:10435000134318462437BD465DF8047B704780B58B
:1043600082B000AF78607868FFF74CFF00BF083775
:10437000BD4680BD80B586B000AF0346B9607A60A7
:10438000FB7300237B61FFF761FF78617A68B9688E
:104390007869FFF7B1FF024697F90F3011461846CA
:1043A000FFF780FF00BF1837BD4680BD80B582B0E3
:1043B00000AF0346FB7197F907301846FFF754FF2B
:1043C00000BF0837BD4680BD80B485B000AF7860BF
:1043D0000023FB737B6893F82530DBB2022B08D0F7
:1043E0007B680422DA637B68002283F8242001239F
:1043F00022E07B681B681A687B681B6822F00E024B
:104400001A607B681B681A687B681B6822F00102CF
:104410001A607B685B6C03F01C027B681B6C0121DB
:1044200001FA02F25A607B68012283F825207B683A
:10443000002283F82420FB7B18461437BD465DF824
:10444000047B704780B584B000AF78600023FB73B5
:104450007B6893F82530DBB2022B05D07B68042201
:10446000DA630123FB7329E07B681B681A687B68A9
:104470001B6822F00E021A607B681B681A687B6852
:104480001B6822F001021A607B685B6C03F01C025F
:104490007B681B6C012101FA02F25A607B680122E1
:1044A00083F825207B68002283F824207B689B6B9F
:1044B000002B03D07B689B6B78689847FB7B184682
:1044C0001037BD4680BD000080B487B000AF786073
:1044D000396000237B6154E13B681A6801217B69E4
:1044E00001FA03F31340FB60FB68002B00F04681E8
:1044F0003B685B6803F00303012B05D03B685B68F6
:1045000003F00303022B30D17B689B683B617B691E
:104510005B00032202FA03F3DB433A6913403B6179
:104520003B68DA687B695B0002FA03F33A6913437C
:104530003B617B683A699A607B685B683B610122FA
:104540007B6902FA03F3DB433A6913403B613B6842
:104550005B681B0903F001027B6902FA03F33A6905
:1045600013433B617B683A695A603B685B6803F0C0
:104570000303032B17D07B68DB683B617B695B001F
:10458000032202FA03F3DB433A6913403B613B68C1
:104590009A687B695B0002FA03F33A6913433B6153
:1045A0007B683A69DA603B685B6803F00303022BBF
:1045B00023D17B69DA087B68083253F822303B61EB
:1045C0007B6903F007039B000F2202FA03F3DB432E
:1045D0003A6913403B613B681A697B6903F0070342
:1045E0009B0002FA03F33A6913433B617B69DA08E3
:1045F0007B680832396943F822107B681B683B618D
:104600007B695B00032202FA03F3DB433A69134040
:104610003B613B685B6803F003027B695B0002FA65
:1046200003F33A6913433B617B683A691A603B685C
:104630005B6803F44033002B00F0A080584B1B6EE6
:10464000574A43F001031366554B1B6E03F00103F9
:10465000BB60BB68534A7B699B08023352F8233026
:104660003B617B6903F003039B000F2202FA03F313
:10467000DB433A6913403B617B68B3F1904F19D03B
:104680007B68494A934213D07B68484A93420DD0D5
:104690007B68474A934207D07B68464A934201D1E0
:1046A000042308E0072306E0032304E0022302E0DA
:1046B000012300E000237A6902F003029200934094
:1046C0003A6913433B6137497B699B0802333A6976
:1046D00041F82320384B9B683B61FB68DB433A6918
:1046E00013403B613B685B6803F48013002B03D0ED
:1046F0003A69FB6813433B612F4A3B6993602E4B39
:10470000DB683B61FB68DB433A6913403B613B6814
:104710005B6803F40013002B03D03A69FB68134372
:104720003B61254A3B69D360234B5B683B61FB6877
:10473000DB433A6913403B613B685B6803F4003339
:10474000002B03D03A69FB6813433B611A4A3B696B
:104750005360194B1B683B61FB68DB433A691340AC
:104760003B613B685B6803F48033002B03D03A69FC
:10477000FB6813433B61104A3B6913607B6901335B
:104780007B613B681A687B6922FA03F3002B7FF494
:10479000A3AE00BF00BF1C37BD465DF8047B704769
:1047A00000100240000001400004004800080048DA
:1047B000000C0048001000480004014080B485B09F
:1047C00000AF78600B467B807B681A697B8813405A
:1047D000002B02D00123FB7301E00023FB73FB7B62
:1047E00018461437BD465DF8047B704780B483B02B
:1047F00000AF78600B467B8013467B707B78002B84
:1048000003D07A887B689A6102E07A887B689A6232
:1048100000BF0C37BD465DF8047B704780B582B0A1
:1048200000AF0346FB80084B5A69FB881340002BFE
:1048300006D0054AFB885361FB881846FCF7E2FD69
:1048400000BF0837BD4680BD0004014080B400AF02
:10485000044B1B6803F4C0631846BD465DF8047B37
:10486000704700BF0070004080B485B000AF786032
:104870007B68B3F5007F30D1234B1B6803F4C06322
:10488000B3F5007F38D0204B1B6823F4C0631E4A69
:1048900043F4007313601D4B1B68322202FB03F3C9
:1048A0001B4AA2FB03239B0C0133FB6002E0FB6865
:1048B000013BFB60144B5B6903F48063B3F5806FCD
:1048C00002D1FB68002BF2D10F4B5B6903F48063CC
:1048D000B3F5806F10D103230FE00B4B1B6803F47B
:1048E000C063B3F5806F07D0074B1B6823F4C06328
:1048F000054A43F480631360002318461437BD460D
:104900005DF8047B704700BF007000403800002055
:1049100083DE1B4380B588B000AF78607B68002BD6
:1049200002D1012300F002BC964B9B6803F00C03FC
:10493000BB61944BDB6803F003037B617B681B68FE
:1049400003F01003002B00F0E480BB69002B07D0BC
:10495000BB690C2B40F08B807B69012B40F087807A
:10496000884B1B6803F00203002B05D07B689B6912
:10497000002B01D10123D9E37B681A6A814B1B68A4
:1049800003F00803002B04D07E4B1B6803F0F003F8
:1049900005E07C4BD3F894301B0903F0F0039342FD
:1049A00023D27B681B6A184600F0BEFD0346002B2D
:1049B00001D00123BAE3734B1B68724A43F008032A
:1049C0001360704B1B6823F0F0027B681B6A6D4913
:1049D00013430B606B4B5B6823F47F427B68DB699E
:1049E0001B02684913434B6025E0664B1B68654A10
:1049F00043F008031360634B1B6823F0F0027B68ED
:104A00001B6A604913430B605E4B5B6823F47F4273
:104A10007B68DB691B025B4913434B60BB69002B5E
:104A200009D17B681B6A184600F07EFD0346002B07
:104A300001D001237AE300F081FC0246514B9B68D0
:104A40001B0903F00F035049CB5C03F01F0322FA4C
:104A500003F34E4A13604E4B1B681846FDF722F8CD
:104A60000346FB73FB7B002B52D0FB7B5EE37B6832
:104A70009B69002B32D0434B1B68424A43F0010331
:104A80001360FDF76BFF386108E0FDF767FF024632
:104A90003B69D31A022B01D9032347E3394B1B6827
:104AA00003F00203002BF0D0364B1B68354A43F06D
:104AB00008031360334B1B6823F0F0027B681B6A0A
:104AC000304913430B602F4B5B6823F47F427B68B4
:104AD000DB691B022B4913434B601AE0294B1B680F
:104AE000284A23F001031360FDF738FF386108E01E
:104AF000FDF734FF02463B69D31A022B01D9032389
:104B000014E3204B1B6803F00203002BF0D100E0FC
:104B100000BF7B681B6803F00103002B73D0BB69E7
:104B2000082B05D0BB690C2B0ED17B69032B0BD155
:104B3000144B1B6803F40033002B63D07B685B6865
:104B4000002B5FD10123F1E27B685B68B3F5803F06
:104B500006D10C4B1B680B4A43F48033136025E0ED
:104B60007B685B68B3F5A02F14D1064B1B68054A20
:104B700043F480231360034B1B68024A43F48033E1
:104B8000136013E00010024018B500083800002040
:104B90003C000020A04B1B689F4A23F48033136025
:104BA0009D4B1B689C4A23F4802313607B685B68E1
:104BB000002B13D0FDF7D2FE386108E0FDF7CEFEE2
:104BC00002463B69D31A642B01D90323AEE2924B10
:104BD0001B6803F40033002BF0D014E0FDF7BEFE99
:104BE000386108E0FDF7BAFE02463B69D31A642B30
:104BF00001D903239AE2884B1B6803F40033002B8E
:104C0000F0D100E000BF7B681B6803F00203002BBB
:104C100060D0BB69042B05D0BB690C2B19D17B6913
:104C2000022B16D17C4B1B6803F48063002B05D04C
:104C30007B68DB68002B01D1012377E2764B5B6850
:104C400023F0F8527B681B691B06734913434B60C2
:104C500040E07B68DB68002B23D06F4B1B686E4AFB
:104C600043F480731360FDF779FE386108E0FDF7C7
:104C700075FE02463B69D31A022B01D9032355E284
:104C8000654B1B6803F48063002BF0D0624B5B68BC
:104C900023F0F8527B681B691B065F4913434B6086
:104CA00018E05D4B1B685C4A23F480731360FDF7CA
:104CB00055FE386108E0FDF751FE02463B69D31A04
:104CC000022B01D9032331E2534B1B6803F48063A9
:104CD000002BF0D17B681B6803F00803002B3CD04D
:104CE0007B685B69002B1CD04B4BD3F894304A4A4D
:104CF00043F00103C2F89430FDF730FE386108E05C
:104D0000FDF72CFE02463B69D31A022B01D903237F
:104D10000CE2414BD3F8943003F00203002BEFD0A8
:104D20001BE03D4BD3F894303B4A23F00103C2F81B
:104D30009430FDF713FE386108E0FDF70FFE0246E0
:104D40003B69D31A022B01D90323EFE1324BD3F88D
:104D5000943003F00203002BEFD17B681B6803F053
:104D60000403002B00F0A6800023FB772A4B9B6DE9
:104D700003F08053002B0DD1274B9B6D264A43F047
:104D800080539365244B9B6D03F08053BB60BB68DD
:104D90000123FB77214B1B6803F48073002B18D190
:104DA0001E4B1B681D4A43F480731360FDF7D6FD4C
:104DB000386108E0FDF7D2FD02463B69D31A022BA9
:104DC00001D90323B2E1154B1B6803F48073002B58
:104DD000F0D07B689B68012B08D10F4BD3F8903043
:104DE0000D4A43F00103C2F8903029E07B689B68CC
:104DF000052B15D1084BD3F89030074A43F0040334
:104E0000C2F89030044BD3F89030034A43F00103CA
:104E1000C2F8903014E000BF001002400070004063
:104E20009A4BD3F89030994A23F00103C2F890309E
:104E3000964BD3F89030954A23F00403C2F8903093
:104E40007B689B68002B16D0FDF788FD38610AE06F
:104E5000FDF784FD02463B69D31A41F28832934242
:104E600001D9032362E1894BD3F8903003F00203A8
:104E7000002BEDD015E0FDF771FD38610AE0FDF77C
:104E80006DFD02463B69D31A41F28832934201D943
:104E900003234BE17D4BD3F8903003F00203002B4A
:104EA000EDD1FB7F012B05D1784B9B6D774A23F029
:104EB000805393657B681B6803F02003002B3CD074
:104EC0007B685B6A002B1CD0704BD3F898306F4A1C
:104ED00043F00103C2F89830FDF740FD386108E067
:104EE000FDF73CFD02463B69D31A022B01D903238F
:104EF0001CE1664BD3F8983003F00203002BEFD08F
:104F00001BE0624BD3F89830604A23F00103C2F8EB
:104F10009830FDF723FD386108E0FDF71FFD0246DC
:104F20003B69D31A022B01D90323FFE0574BD3F877
:104F3000983003F00203002BEFD17B689B6A002BB3
:104F400000F0F3807B689B6A022B40F0C9804F4BD6
:104F5000DB687B617B6903F003027B68DB6A9A4252
:104F60002CD17B6903F070027B681B6B013B1B013A
:104F70009A4223D17B6903F4FE427B685B6B1B0280
:104F80009A421BD17B6903F078427B689B6BDB06FE
:104F90009A4213D17B6903F4C0027B68DB6B5B0828
:104FA000013B5B059A4209D17B6903F0C0627B68D3
:104FB0001B6C5B08013B5B069A426BD0BB690C2BF8
:104FC00062D0324B1B6803F08063002B01D00123B9
:104FD000ACE02E4B1B682D4A23F080731360FDF765
:104FE000BDFC386108E0FDF7B9FC02463B69D31A05
:104FF000022B01D9032399E0244B1B6803F00073B3
:10500000002BF0D1214BDA68214B13407A68D16A2A
:105010007A68126B013A120111437A68526B1202DC
:1050200011437A68D26B5208013A520511437A68EB
:10503000126C5208013A520611437A68926BD206FA
:105040000A4312491343CB60104B1B680F4A43F0CD
:10505000807313600D4BDB680C4A43F08073D360A0
:10506000FDF77CFC386108E0FDF778FC02463B69FF
:10507000D31A022B01D9032358E0044B1B6803F019
:105080000073002BF0D050E001234FE000100240ED
:105090008C809D01274B1B6803F00073002B44D1CB
:1050A000244B1B68234A43F080731360214BDB6859
:1050B000204A43F08073D360FDF750FC386108E06C
:1050C000FDF74CFC02463B69D31A022B01D903239E
:1050D0002CE0184B1B6803F00073002BF0D024E089
:1050E000BB690C2B1FD0134B1B68124A23F0807333
:1050F0001360FDF733FC386108E0FDF72FFC024632
:105100003B69D31A022B01D903230FE0094B1B681B
:1051100003F00073002BF0D1064BDA680549064B0B
:105120001340CB6001E0012300E000231846203744
:10513000BD4680BD00100240FCFFEEFE80B584B08D
:1051400000AF786039607B68002B01D10123E7E074
:10515000754B1B6803F007033A689A4210D9724BEB
:105160001B6823F0070270493B6813430B606E4BCA
:105170001B6803F007033A689A4201D00123CFE08D
:105180007B681B6803F00203002B10D07B689A68D1
:10519000664B9B6803F0F0039A4208D9634B9B6807
:1051A00023F0F0027B689B68604913438B607B6847
:1051B0001B6803F00103002B4CD07B685B68032B5A
:1051C00007D15A4B1B6803F00073002B21D1012338
:1051D000A6E07B685B68022B07D1544B1B6803F485
:1051E0000033002B15D101239AE07B685B68002B0C
:1051F00007D14E4B1B6803F00203002B09D101239A
:105200008EE04A4B1B6803F48063002B01D101231D
:1052100086E0464B9B6823F003027B685B6843494A
:1052200013438B60FDF79AFBF8600AE0FDF796FBED
:105230000246FB68D31A41F28832934201D9032314
:105240006EE03A4B9B6803F00C027B685B689B0046
:105250009A42EBD17B681B6803F00203002B10D04D
:105260007B689A68314B9B6803F0F0039A4208D23E
:105270002E4B9B6823F0F0027B689B682B491343FD
:105280008B60294B1B6803F007033A689A4210D2DF
:10529000254B1B6823F0070223493B6813430B602F
:1052A000214B1B6803F007033A689A4201D001239F
:1052B00036E07B681B6803F00403002B08D01B4B0F
:1052C0009B6823F4E0627B68DB68184913438B60BA
:1052D0007B681B6803F00803002B09D0134B9B6805
:1052E00023F460527B681B69DB00104913438B6019
:1052F00000F024F802460D4B9B681B0903F00F03D6
:105300000B49CB5C03F01F0322FA03F3094A136035
:10531000094B1B681846FCF7C5FB0346FB72FB7A7A
:1053200018461037BD4680BD0020024000100240E4
:1053300018B50008380000203C00002080B489B077
:1053400000AF0023FB610023BB613E4B9B6803F071
:105350000C033B613B4BDB6803F00303FB603B69E1
:10536000002B05D03B690C2B21D1FB68012B1ED1F2
:10537000344B1B6803F00803002B07D1314BD3F8E3
:1053800094301B0A03F00F03FB6105E02D4B1B68F3
:105390001B0903F00F03FB612B4AFB6952F8233012
:1053A000FB613B69002B0DD1FB69BB610AE03B69E6
:1053B000042B02D1254BBB6104E03B69082B01D1D2
:1053C000234BBB613B690C2B34D11E4BDB6803F0D4
:1053D0000303BB60BB68022B03D0BB68032B03D065
:1053E00005E01A4B7B6105E0194B7B6102E0FB692C
:1053F0007B6100BF134BDB681B0903F0070301331C
:105400007B60104BDB681B0A03F07F037A6903FBA8
:1054100002F27B68B2FBF3F37B610A4BDB685B0E45
:1054200003F0030301335B003B607A693B68B2FB26
:10543000F3F3BB61BB6918462437BD465DF8047BB6
:10544000704700BF0010024030B500080024F4008F
:1054500000127A0080B400AF034B1B681846BD46AB
:105460005DF8047B704700BF3800002080B500AFB6
:10547000FFF7F0FF0246064B9B681B0A03F0070389
:105480000449CB5C03F01F0322FA03F3184680BDE6
:105490000010024028B5000880B500AFFFF7DAFF22
:1054A0000246064B9B68DB0A03F007030449CB5C0A
:1054B00003F01F0322FA03F3184680BD00100240D8
:1054C00028B5000880B483B000AF786039607B688D
:1054D0000F221A60124B9B6803F003027B685A602C
:1054E0000F4B9B6803F0F0027B689A600C4B9B6843
:1054F00003F4E0627B68DA60094B9B68DB0803F425
:10550000E0627B681A61074B1B6803F007023B6887
:105510001A6000BF0C37BD465DF8047B704700BFC2
:10552000001002400020024080B586B000AF7860D5
:1055300000233B612A4B9B6D03F08053002B03D06B
:10554000FFF784F9786114E0254B9B6D244A43F002
:1055500080539365224B9B6D03F08053FB60FB6887
:10556000FFF774F978611E4B9B6D1D4A23F0805341
:1055700093657B69B3F5007F0BD17B68802B19D9CC
:105580007B68A02B02D902233B6113E001233B611E
:1055900010E07B68802B02D903233B610AE07B6823
:1055A000802B02D102233B6104E07B68702B01D188
:1055B00001233B610B4B1B6823F0070209493B6940
:1055C00013430B60074B1B6803F007033A699A42C9
:1055D00001D0012300E0002318461837BD4680BDE6
:1055E000001002400020024080B586B000AF786015
:1055F0000023FB740023BB747B681B6803F4006307
:10560000002B31D07B685B6CB3F5400F1AD0B3F53B
:10561000400F14D8002B09D0B3F5000F0FD15D4B0C
:10562000DB685C4A43F48033D3600CE07B6804336E
:105630000021184600F0F0F90346FB7403E0012353
:10564000FB7400E000BFFB7C002B0BD1514BD3F867
:10565000883023F440027B685B6C4E491343C1F8E9
:10566000883001E0FB7CBB747B681B6803F400336B
:10567000002B00F09E8000237B74464B9B6D03F053
:105680008053002B01D1012300E00023002B0DD01B
:10569000404B9B6D3F4A43F0805393653D4B9B6D60
:1056A00003F08053BB60BB6801237B743A4B1B68DB
:1056B000394A43F480731360FDF750F9F86009E04C
:1056C000FDF74CF90246FB68D31A022B02D90323DB
:1056D000FB7405E0304B1B6803F48073002BEFD0A4
:1056E000FB7C002B5AD12B4BD3F8903003F4407342
:1056F0007B617B69002B1ED07B689B6D7A699A4227
:1057000019D0244BD3F8903023F440737B61214BA4
:10571000D3F890301F4A43F48033C2F890301D4BC9
:10572000D3F890301B4A23F48033C2F89030194AE2
:105730007B69C2F890307B6903F00103002B16D01F
:10574000FDF70CF9F8600BE0FDF708F90246FB687D
:10575000D31A41F28832934202D90323FB7406E044
:105760000C4BD3F8903003F00203002BECD0FB7C01
:10577000002B0BD1074BD3F8903023F440727B6899
:105780009B6D04491343C1F8903009E0FB7CBB7466
:1057900006E000BF0010024000700040FB7CBB74BC
:1057A0007B7C012B05D19B4B9B6D9A4A23F0805348
:1057B00093657B681B6803F00103002B0AD0954BAF
:1057C000D3F8883023F003027B681B6A91491343A6
:1057D000C1F888307B681B6803F00203002B0AD0F5
:1057E0008C4BD3F8883023F00C027B685B6A8949C4
:1057F0001343C1F888307B681B6803F00403002B57
:105800000AD0844BD3F8883023F030027B689B6A3F
:1058100080491343C1F888307B681B6803F020037C
:10582000002B0AD07B4BD3F8883023F440627B688E
:10583000DB6A78491343C1F888307B681B6803F43E
:105840000073002B0AD0734BD3F8883023F4402226
:105850007B68DB6B6F491343C1F888307B681B683A
:1058600003F48063002B0AD06A4BD3F8883023F40A
:1058700040127B681B6C67491343C1F888307B6812
:105880001B6803F04003002B0AD0624BD3F888302A
:1058900023F440527B681B6B5E491343C1F8883088
:1058A0007B681B6803F08003002B0AD0594BD3F8A8
:1058B000883023F440427B685B6B56491343C1F840
:1058C00088307B681B6803F48073002B0AD0514B2F
:1058D000D3F8883023F440327B689B6B4D491343E7
:1058E000C1F888307B681B6803F40023002B28D0A4
:1058F000484BD3F8883023F040627B689B6C454965
:105900001343C1F888307B689B6CB3F1006F06D1FC
:10591000404BDB683F4A43F48013D36011E07B685F
:105920009B6CB3F1806F0CD17B6804330121184666
:1059300000F072F80346FB74FB7C002B01D0FB7C6B
:10594000BB747B681B6803F48023002B28D0314B89
:10595000D3F8883023F040627B68DB6C2D49134319
:10596000C1F888307B68DB6CB3F1006F06D1294B3E
:10597000DB68284A43F48013D36011E07B68DB6C5A
:10598000B3F1806F0CD17B6804330121184600F01D
:1059900043F80346FB74FB7C002B01D0FB7CBB74FB
:1059A0007B681B6803F48043002B1CD0194BD3F891
:1059B000883023F040527B681B6D16491343C1F8B1
:1059C00088307B681B6DB3F1805F0CD17B6804333A
:1059D0000221184600F020F80346FB74FB7C002BE4
:1059E00001D0FB7CBB747B681B6803F40043002B75
:1059F0000AD0084BD3F8883023F080427B685B6D77
:105A000004491343C1F88830BB7C18461837BD469B
:105A100080BD00BF0010024080B584B000AF786048
:105A200039600023FB73744BDB6803F00303002B26
:105A300018D0714BDB6803F003027B681B689A4245
:105A40000DD17B681B68002B09D06B4BDB681B09F1
:105A500003F007035A1C7B685B689A4247D0012316
:105A6000FB7344E07B681B68032B18D0032B25D8FD
:105A7000012B02D0022B09D020E05F4B1B6803F002
:105A80000203002B1DD10123FB731AE05A4B1B6844
:105A900003F48063002B16D10123FB7313E0564BF4
:105AA0001B6803F40033002B0FD1534B1B6803F426
:105AB0008023002B09D10123FB7306E00123FB7334
:105AC00004E000BF02E000BF00E000BFFB7B002B52
:105AD0000DD1494BDB6823F073027B6819687B6842
